{
  "_format": "hh-sol-artifact-1",
  "contractName": "PutYourETHWhereYourMouthIs",
  "sourceName": "contracts/nfts.sol",
  "abi": [
    {
      "inputs": [],
      "stateMutability": "nonpayable",
      "type": "constructor"
    },
    {
      "anonymous": false,
      "inputs": [
        {
          "indexed": true,
          "internalType": "address",
          "name": "owner",
          "type": "address"
        },
        {
          "indexed": true,
          "internalType": "address",
          "name": "approved",
          "type": "address"
        },
        {
          "indexed": true,
          "internalType": "uint256",
          "name": "tokenId",
          "type": "uint256"
        }
      ],
      "name": "Approval",
      "type": "event"
    },
    {
      "anonymous": false,
      "inputs": [
        {
          "indexed": true,
          "internalType": "address",
          "name": "owner",
          "type": "address"
        },
        {
          "indexed": true,
          "internalType": "address",
          "name": "operator",
          "type": "address"
        },
        {
          "indexed": false,
          "internalType": "bool",
          "name": "approved",
          "type": "bool"
        }
      ],
      "name": "ApprovalForAll",
      "type": "event"
    },
    {
      "anonymous": false,
      "inputs": [
        {
          "indexed": false,
          "internalType": "uint256",
          "name": "",
          "type": "uint256"
        }
      ],
      "name": "Approved",
      "type": "event"
    },
    {
      "anonymous": false,
      "inputs": [
        {
          "indexed": true,
          "internalType": "address",
          "name": "from",
          "type": "address"
        },
        {
          "indexed": true,
          "internalType": "address",
          "name": "to",
          "type": "address"
        },
        {
          "indexed": true,
          "internalType": "uint256",
          "name": "tokenId",
          "type": "uint256"
        }
      ],
      "name": "Transfer",
      "type": "event"
    },
    {
      "inputs": [
        {
          "internalType": "uint256",
          "name": "tokenId",
          "type": "uint256"
        }
      ],
      "name": "achieved",
      "outputs": [],
      "stateMutability": "nonpayable",
      "type": "function"
    },
    {
      "inputs": [
        {
          "internalType": "address",
          "name": "to",
          "type": "address"
        },
        {
          "internalType": "uint256",
          "name": "tokenId",
          "type": "uint256"
        }
      ],
      "name": "approve",
      "outputs": [],
      "stateMutability": "nonpayable",
      "type": "function"
    },
    {
      "inputs": [
        {
          "internalType": "address",
          "name": "owner",
          "type": "address"
        }
      ],
      "name": "balanceOf",
      "outputs": [
        {
          "internalType": "uint256",
          "name": "",
          "type": "uint256"
        }
      ],
      "stateMutability": "view",
      "type": "function"
    },
    {
      "inputs": [
        {
          "internalType": "uint256",
          "name": "tokenId",
          "type": "uint256"
        }
      ],
      "name": "failed",
      "outputs": [],
      "stateMutability": "nonpayable",
      "type": "function"
    },
    {
      "inputs": [
        {
          "internalType": "uint256",
          "name": "tokenId",
          "type": "uint256"
        },
        {
          "internalType": "string",
          "name": "goal",
          "type": "string"
        }
      ],
      "name": "generateNFT",
      "outputs": [
        {
          "internalType": "string",
          "name": "",
          "type": "string"
        }
      ],
      "stateMutability": "nonpayable",
      "type": "function"
    },
    {
      "inputs": [
        {
          "internalType": "uint256",
          "name": "tokenId",
          "type": "uint256"
        }
      ],
      "name": "getApproved",
      "outputs": [
        {
          "internalType": "address",
          "name": "",
          "type": "address"
        }
      ],
      "stateMutability": "view",
      "type": "function"
    },
    {
      "inputs": [
        {
          "internalType": "uint256",
          "name": "tokenId",
          "type": "uint256"
        }
      ],
      "name": "getStake",
      "outputs": [
        {
          "internalType": "string",
          "name": "",
          "type": "string"
        }
      ],
      "stateMutability": "view",
      "type": "function"
    },
    {
      "inputs": [
        {
          "internalType": "uint256",
          "name": "tokenId",
          "type": "uint256"
        },
        {
          "internalType": "string",
          "name": "goal",
          "type": "string"
        }
      ],
      "name": "getTokenURI",
      "outputs": [
        {
          "internalType": "string",
          "name": "",
          "type": "string"
        }
      ],
      "stateMutability": "nonpayable",
      "type": "function"
    },
    {
      "inputs": [
        {
          "internalType": "address",
          "name": "owner",
          "type": "address"
        },
        {
          "internalType": "address",
          "name": "operator",
          "type": "address"
        }
      ],
      "name": "isApprovedForAll",
      "outputs": [
        {
          "internalType": "bool",
          "name": "",
          "type": "bool"
        }
      ],
      "stateMutability": "view",
      "type": "function"
    },
    {
      "inputs": [
        {
          "internalType": "address",
          "name": "arbiter",
          "type": "address"
        },
        {
          "internalType": "address",
          "name": "_counter_party",
          "type": "address"
        },
        {
          "internalType": "string",
          "name": "goal",
          "type": "string"
        }
      ],
      "name": "mint",
      "outputs": [],
      "stateMutability": "payable",
      "type": "function"
    },
    {
      "inputs": [],
      "name": "name",
      "outputs": [
        {
          "internalType": "string",
          "name": "",
          "type": "string"
        }
      ],
      "stateMutability": "view",
      "type": "function"
    },
    {
      "inputs": [
        {
          "internalType": "uint256",
          "name": "tokenId",
          "type": "uint256"
        }
      ],
      "name": "ownerOf",
      "outputs": [
        {
          "internalType": "address",
          "name": "",
          "type": "address"
        }
      ],
      "stateMutability": "view",
      "type": "function"
    },
    {
      "inputs": [
        {
          "internalType": "address",
          "name": "from",
          "type": "address"
        },
        {
          "internalType": "address",
          "name": "to",
          "type": "address"
        },
        {
          "internalType": "uint256",
          "name": "tokenId",
          "type": "uint256"
        }
      ],
      "name": "safeTransferFrom",
      "outputs": [],
      "stateMutability": "nonpayable",
      "type": "function"
    },
    {
      "inputs": [
        {
          "internalType": "address",
          "name": "from",
          "type": "address"
        },
        {
          "internalType": "address",
          "name": "to",
          "type": "address"
        },
        {
          "internalType": "uint256",
          "name": "tokenId",
          "type": "uint256"
        },
        {
          "internalType": "bytes",
          "name": "data",
          "type": "bytes"
        }
      ],
      "name": "safeTransferFrom",
      "outputs": [],
      "stateMutability": "nonpayable",
      "type": "function"
    },
    {
      "inputs": [
        {
          "internalType": "address",
          "name": "operator",
          "type": "address"
        },
        {
          "internalType": "bool",
          "name": "approved",
          "type": "bool"
        }
      ],
      "name": "setApprovalForAll",
      "outputs": [],
      "stateMutability": "nonpayable",
      "type": "function"
    },
    {
      "inputs": [
        {
          "internalType": "bytes4",
          "name": "interfaceId",
          "type": "bytes4"
        }
      ],
      "name": "supportsInterface",
      "outputs": [
        {
          "internalType": "bool",
          "name": "",
          "type": "bool"
        }
      ],
      "stateMutability": "view",
      "type": "function"
    },
    {
      "inputs": [],
      "name": "symbol",
      "outputs": [
        {
          "internalType": "string",
          "name": "",
          "type": "string"
        }
      ],
      "stateMutability": "view",
      "type": "function"
    },
    {
      "inputs": [
        {
          "internalType": "uint256",
          "name": "",
          "type": "uint256"
        }
      ],
      "name": "tokenIdToEscrows",
      "outputs": [
        {
          "internalType": "address",
          "name": "arbiter",
          "type": "address"
        },
        {
          "internalType": "address",
          "name": "beneficiary",
          "type": "address"
        },
        {
          "internalType": "address",
          "name": "counter_party",
          "type": "address"
        },
        {
          "internalType": "uint256",
          "name": "amount",
          "type": "uint256"
        },
        {
          "internalType": "bool",
          "name": "isApproved",
          "type": "bool"
        }
      ],
      "stateMutability": "view",
      "type": "function"
    },
    {
      "inputs": [
        {
          "internalType": "uint256",
          "name": "tokenId",
          "type": "uint256"
        }
      ],
      "name": "tokenURI",
      "outputs": [
        {
          "internalType": "string",
          "name": "",
          "type": "string"
        }
      ],
      "stateMutability": "view",
      "type": "function"
    },
    {
      "inputs": [
        {
          "internalType": "address",
          "name": "from",
          "type": "address"
        },
        {
          "internalType": "address",
          "name": "to",
          "type": "address"
        },
        {
          "internalType": "uint256",
          "name": "tokenId",
          "type": "uint256"
        }
      ],
      "name": "transferFrom",
      "outputs": [],
      "stateMutability": "nonpayable",
      "type": "function"
    }
  ],
  "bytecode": "0x60806040523480156200001157600080fd5b506040518060400160405280601a81526020017f507574596f75724554485768657265596f75724d6f75746849730000000000008152506040518060400160405280600381526020017f5059450000000000000000000000000000000000000000000000000000000000815250816000908051906020019062000096929190620000b8565b508060019080519060200190620000af929190620000b8565b505050620001cd565b828054620000c69062000197565b90600052602060002090601f016020900481019282620000ea576000855562000136565b82601f106200010557805160ff191683800117855562000136565b8280016001018555821562000136579182015b828111156200013557825182559160200191906001019062000118565b5b50905062000145919062000149565b5090565b5b80821115620001645760008160009055506001016200014a565b5090565b7f4e487b7100000000000000000000000000000000000000000000000000000000600052602260045260246000fd5b60006002820490506001821680620001b057607f821691505b60208210811415620001c757620001c662000168565b5b50919050565b6146d680620001dd6000396000f3fe60806040526004361061011f5760003560e01c806375d4d8af116100a0578063b88d4fde11610064578063b88d4fde14610412578063c87b56dd1461043b578063ce325bf814610478578063e985e9c5146104b5578063f2e5f682146104f25761011f565b806375d4d8af1461031757806395d89b41146103545780639de0d6231461037f578063a22cb465146103c0578063adb80db9146103e95761011f565b8063221375a6116100e7578063221375a61461022f57806323b872dd1461024b57806342842e0e146102745780636352211e1461029d57806370a08231146102da5761011f565b806301ffc9a71461012457806306fdde0314610161578063081812fc1461018c578063095ea7b3146101c95780630c6ab5a7146101f2575b600080fd5b34801561013057600080fd5b5061014b600480360381019061014691906128e1565b61051b565b6040516101589190612929565b60405180910390f35b34801561016d57600080fd5b506101766105fd565b60405161018391906129dd565b60405180910390f35b34801561019857600080fd5b506101b360048036038101906101ae9190612a35565b61068f565b6040516101c09190612aa3565b60405180910390f35b3480156101d557600080fd5b506101f060048036038101906101eb9190612aea565b6106d5565b005b3480156101fe57600080fd5b5061021960048036038101906102149190612c5f565b6107ed565b60405161022691906129dd565b60405180910390f35b61024960048036038101906102449190612cbb565b610859565b005b34801561025757600080fd5b50610272600480360381019061026d9190612d2a565b610a15565b005b34801561028057600080fd5b5061029b60048036038101906102969190612d2a565b610b27565b005b3480156102a957600080fd5b506102c460048036038101906102bf9190612a35565b610b47565b6040516102d19190612aa3565b60405180910390f35b3480156102e657600080fd5b5061030160048036038101906102fc9190612d7d565b610bce565b60405161030e9190612db9565b60405180910390f35b34801561032357600080fd5b5061033e60048036038101906103399190612c5f565b610c86565b60405161034b91906129dd565b60405180910390f35b34801561036057600080fd5b50610369610ce7565b60405161037691906129dd565b60405180910390f35b34801561038b57600080fd5b506103a660048036038101906103a19190612a35565b610d79565b6040516103b7959493929190612dd4565b60405180910390f35b3480156103cc57600080fd5b506103e760048036038101906103e29190612e53565b610e1c565b005b3480156103f557600080fd5b50610410600480360381019061040b9190612a35565b610e32565b005b34801561041e57600080fd5b5061043960048036038101906104349190612f34565b611151565b005b34801561044757600080fd5b50610462600480360381019061045d9190612a35565b6111b3565b60405161046f91906129dd565b60405180910390f35b34801561048457600080fd5b5061049f600480360381019061049a9190612a35565b6112c6565b6040516104ac91906129dd565b60405180910390f35b3480156104c157600080fd5b506104dc60048036038101906104d79190612fb7565b611307565b6040516104e99190612929565b60405180910390f35b3480156104fe57600080fd5b5061051960048036038101906105149190612a35565b61139b565b005b60007f80ac58cd000000000000000000000000000000000000000000000000000000007bffffffffffffffffffffffffffffffffffffffffffffffffffffffff1916827bffffffffffffffffffffffffffffffffffffffffffffffffffffffff191614806105e657507f5b5e139f000000000000000000000000000000000000000000000000000000007bffffffffffffffffffffffffffffffffffffffffffffffffffffffff1916827bffffffffffffffffffffffffffffffffffffffffffffffffffffffff1916145b806105f657506105f582611672565b5b9050919050565b60606000805461060c90613026565b80601f016020809104026020016040519081016040528092919081815260200182805461063890613026565b80156106855780601f1061065a57610100808354040283529160200191610685565b820191906000526020600020905b81548152906001019060200180831161066857829003601f168201915b5050505050905090565b600061069a826116dc565b6004600083815260200190815260200160002060009054906101000a900473ffffffffffffffffffffffffffffffffffffffff169050919050565b60006106e082610b47565b90508073ffffffffffffffffffffffffffffffffffffffff168373ffffffffffffffffffffffffffffffffffffffff161415610751576040517f08c379a0000000000000000000000000000000000000000000000000000000008152600401610748906130ca565b60405180910390fd5b8073ffffffffffffffffffffffffffffffffffffffff16610770611727565b73ffffffffffffffffffffffffffffffffffffffff16148061079f575061079e81610799611727565b611307565b5b6107de576040517f08c379a00000000000000000000000000000000000000000000000000000000081526004016107d59061315c565b60405180910390fd5b6107e8838361172f565b505050565b606060006107fa846117e8565b6108048585610c86565b846040516020016108179392919061362c565b6040516020818303038152906040529050610831816118c0565b604051602001610841919061376f565b60405160208183030381529060405291505092915050565b6108636007611a24565b600061086f6007611a3a565b90506040518060a001604052808573ffffffffffffffffffffffffffffffffffffffff1681526020013373ffffffffffffffffffffffffffffffffffffffff1681526020018473ffffffffffffffffffffffffffffffffffffffff168152602001348152602001600015158152506008600083815260200190815260200160002060008201518160000160006101000a81548173ffffffffffffffffffffffffffffffffffffffff021916908373ffffffffffffffffffffffffffffffffffffffff16021790555060208201518160010160006101000a81548173ffffffffffffffffffffffffffffffffffffffff021916908373ffffffffffffffffffffffffffffffffffffffff16021790555060408201518160020160006101000a81548173ffffffffffffffffffffffffffffffffffffffff021916908373ffffffffffffffffffffffffffffffffffffffff1602179055506060820151816003015560808201518160040160006101000a81548160ff0219169083151502179055509050506109fc3382611a48565b610a0f81610a0a83856107ed565b611a66565b50505050565b610a1e81611ada565b610a5d576040517f08c379a0000000000000000000000000000000000000000000000000000000008152600401610a54906137dd565b60405180910390fd5b6002600114610aa1576040517f08c379a0000000000000000000000000000000000000000000000000000000008152600401610a989061386f565b60405180910390fd5b8273ffffffffffffffffffffffffffffffffffffffff16610ac182610b47565b73ffffffffffffffffffffffffffffffffffffffff1614610b17576040517f08c379a0000000000000000000000000000000000000000000000000000000008152600401610b0e906137dd565b60405180910390fd5b610b22838383611b1b565b505050565b610b4283838360405180602001604052806000815250611151565b505050565b600080610b5383611e15565b9050600073ffffffffffffffffffffffffffffffffffffffff168173ffffffffffffffffffffffffffffffffffffffff161415610bc5576040517f08c379a0000000000000000000000000000000000000000000000000000000008152600401610bbc906138db565b60405180910390fd5b80915050919050565b60008073ffffffffffffffffffffffffffffffffffffffff168273ffffffffffffffffffffffffffffffffffffffff161415610c3f576040517f08c379a0000000000000000000000000000000000000000000000000000000008152600401610c369061396d565b60405180910390fd5b600360008373ffffffffffffffffffffffffffffffffffffffff1673ffffffffffffffffffffffffffffffffffffffff168152602001908152602001600020549050919050565b6060600082610c94856112c6565b604051602001610ca5929190613db5565b6040516020818303038152906040529050610cbf816118c0565b604051602001610ccf9190613e88565b60405160208183030381529060405291505092915050565b606060018054610cf690613026565b80601f0160208091040260200160405190810160405280929190818152602001828054610d2290613026565b8015610d6f5780601f10610d4457610100808354040283529160200191610d6f565b820191906000526020600020905b815481529060010190602001808311610d5257829003601f168201915b5050505050905090565b60086020528060005260406000206000915090508060000160009054906101000a900473ffffffffffffffffffffffffffffffffffffffff16908060010160009054906101000a900473ffffffffffffffffffffffffffffffffffffffff16908060020160009054906101000a900473ffffffffffffffffffffffffffffffffffffffff16908060030154908060040160009054906101000a900460ff16905085565b610e2e610e27611727565b8383611e52565b5050565b610e3b81611ada565b610e7a576040517f08c379a0000000000000000000000000000000000000000000000000000000008152600401610e71906137dd565b60405180910390fd5b6000600860008381526020019081526020016000206040518060a00160405290816000820160009054906101000a900473ffffffffffffffffffffffffffffffffffffffff1673ffffffffffffffffffffffffffffffffffffffff1673ffffffffffffffffffffffffffffffffffffffff1681526020016001820160009054906101000a900473ffffffffffffffffffffffffffffffffffffffff1673ffffffffffffffffffffffffffffffffffffffff1673ffffffffffffffffffffffffffffffffffffffff1681526020016002820160009054906101000a900473ffffffffffffffffffffffffffffffffffffffff1673ffffffffffffffffffffffffffffffffffffffff1673ffffffffffffffffffffffffffffffffffffffff168152602001600382015481526020016004820160009054906101000a900460ff1615151515815250509050806000015173ffffffffffffffffffffffffffffffffffffffff163373ffffffffffffffffffffffffffffffffffffffff1614610fff57600080fd5b60001515816080015115151461104a576040517f08c379a000000000000000000000000000000000000000000000000000000000815260040161104190613ef6565b60405180910390fd5b60018160800190151590811515815250506000816060015190506000826020015173ffffffffffffffffffffffffffffffffffffffff168260405161108e90613f47565b60006040518083038185875af1925050503d80600081146110cb576040519150601f19603f3d011682016040523d82523d6000602084013e6110d0565b606091505b5050905080611114576040517f08c379a000000000000000000000000000000000000000000000000000000000815260040161110b90613fa8565b60405180910390fd5b7f3ad93af63cb7967b23e4fb500b7d7d28b07516325dcf341f88bebf959d82c1cb826040516111439190612db9565b60405180910390a150505050565b61116261115c611727565b83611fbf565b6111a1576040517f08c379a00000000000000000000000000000000000000000000000000000000081526004016111989061403a565b60405180910390fd5b6111ad84848484612054565b50505050565b60606111be826116dc565b60006006600084815260200190815260200160002080546111de90613026565b80601f016020809104026020016040519081016040528092919081815260200182805461120a90613026565b80156112575780601f1061122c57610100808354040283529160200191611257565b820191906000526020600020905b81548152906001019060200180831161123a57829003601f168201915b5050505050905060006112686120b0565b905060008151141561127e5781925050506112c1565b6000825111156112b357808260405160200161129b92919061405a565b604051602081830303815290604052925050506112c1565b6112bc846120c7565b925050505b919050565b60606000670de0b6b3a764000060086000858152602001908152602001600020600301546112f491906140dc565b90506112ff816117e8565b915050919050565b6000600560008473ffffffffffffffffffffffffffffffffffffffff1673ffffffffffffffffffffffffffffffffffffffff16815260200190815260200160002060008373ffffffffffffffffffffffffffffffffffffffff1673ffffffffffffffffffffffffffffffffffffffff16815260200190815260200160002060009054906101000a900460ff16905092915050565b6000600860008381526020019081526020016000206040518060a00160405290816000820160009054906101000a900473ffffffffffffffffffffffffffffffffffffffff1673ffffffffffffffffffffffffffffffffffffffff1673ffffffffffffffffffffffffffffffffffffffff1681526020016001820160009054906101000a900473ffffffffffffffffffffffffffffffffffffffff1673ffffffffffffffffffffffffffffffffffffffff1673ffffffffffffffffffffffffffffffffffffffff1681526020016002820160009054906101000a900473ffffffffffffffffffffffffffffffffffffffff1673ffffffffffffffffffffffffffffffffffffffff1673ffffffffffffffffffffffffffffffffffffffff168152602001600382015481526020016004820160009054906101000a900460ff1615151515815250509050806000015173ffffffffffffffffffffffffffffffffffffffff163373ffffffffffffffffffffffffffffffffffffffff161461152057600080fd5b60001515816080015115151461156b576040517f08c379a000000000000000000000000000000000000000000000000000000000815260040161156290613ef6565b60405180910390fd5b60018160800190151590811515815250506000816060015190506000826040015173ffffffffffffffffffffffffffffffffffffffff16826040516115af90613f47565b60006040518083038185875af1925050503d80600081146115ec576040519150601f19603f3d011682016040523d82523d6000602084013e6115f1565b606091505b5050905080611635576040517f08c379a000000000000000000000000000000000000000000000000000000000815260040161162c90613fa8565b60405180910390fd5b7f3ad93af63cb7967b23e4fb500b7d7d28b07516325dcf341f88bebf959d82c1cb826040516116649190612db9565b60405180910390a150505050565b60007f01ffc9a7000000000000000000000000000000000000000000000000000000007bffffffffffffffffffffffffffffffffffffffffffffffffffffffff1916827bffffffffffffffffffffffffffffffffffffffffffffffffffffffff1916149050919050565b6116e581611ada565b611724576040517f08c379a000000000000000000000000000000000000000000000000000000000815260040161171b906138db565b60405180910390fd5b50565b600033905090565b816004600083815260200190815260200160002060006101000a81548173ffffffffffffffffffffffffffffffffffffffff021916908373ffffffffffffffffffffffffffffffffffffffff160217905550808273ffffffffffffffffffffffffffffffffffffffff166117a283610b47565b73ffffffffffffffffffffffffffffffffffffffff167f8c5be1e5ebec7d5bd14f71427d1e84f3dd0314c0f7b2291e5b200ac8c7c3b92560405160405180910390a45050565b6060600060016117f78461212f565b01905060008167ffffffffffffffff81111561181657611815612b34565b5b6040519080825280601f01601f1916602001820160405280156118485781602001600182028036833780820191505090505b509050600082602001820190505b6001156118b5578080600190039150507f3031323334353637383961626364656600000000000000000000000000000000600a86061a8153600a858161189f5761189e61407e565b5b04945060008514156118b0576118b5565b611856565b819350505050919050565b60606000825114156118e357604051806020016040528060008152509050611a1f565b60006040518060600160405280604081526020016146616040913990506000600360028551611912919061410d565b61191c91906140dc565b60046119289190614163565b67ffffffffffffffff81111561194157611940612b34565b5b6040519080825280601f01601f1916602001820160405280156119735781602001600182028036833780820191505090505b509050600182016020820185865187015b808210156119df576003820191508151603f8160121c168501518453600184019350603f81600c1c168501518453600184019350603f8160061c168501518453600184019350603f8116850151845360018401935050611984565b50506003865106600181146119fb5760028114611a0e57611a16565b603d6001830353603d6002830353611a16565b603d60018303535b50505080925050505b919050565b6001816000016000828254019250508190555050565b600081600001549050919050565b611a62828260405180602001604052806000815250612282565b5050565b611a6f82611ada565b611aae576040517f08c379a0000000000000000000000000000000000000000000000000000000008152600401611aa59061422f565b60405180910390fd5b80600660008481526020019081526020016000209080519060200190611ad59291906127d2565b505050565b60008073ffffffffffffffffffffffffffffffffffffffff16611afc83611e15565b73ffffffffffffffffffffffffffffffffffffffff1614159050919050565b8273ffffffffffffffffffffffffffffffffffffffff16611b3b82610b47565b73ffffffffffffffffffffffffffffffffffffffff1614611b91576040517f08c379a0000000000000000000000000000000000000000000000000000000008152600401611b88906142c1565b60405180910390fd5b600073ffffffffffffffffffffffffffffffffffffffff168273ffffffffffffffffffffffffffffffffffffffff161415611c01576040517f08c379a0000000000000000000000000000000000000000000000000000000008152600401611bf890614353565b60405180910390fd5b611c0e83838360016122dd565b8273ffffffffffffffffffffffffffffffffffffffff16611c2e82610b47565b73ffffffffffffffffffffffffffffffffffffffff1614611c84576040517f08c379a0000000000000000000000000000000000000000000000000000000008152600401611c7b906142c1565b60405180910390fd5b6004600082815260200190815260200160002060006101000a81549073ffffffffffffffffffffffffffffffffffffffff02191690556001600360008573ffffffffffffffffffffffffffffffffffffffff1673ffffffffffffffffffffffffffffffffffffffff168152602001908152602001600020600082825403925050819055506001600360008473ffffffffffffffffffffffffffffffffffffffff1673ffffffffffffffffffffffffffffffffffffffff16815260200190815260200160002060008282540192505081905550816002600083815260200190815260200160002060006101000a81548173ffffffffffffffffffffffffffffffffffffffff021916908373ffffffffffffffffffffffffffffffffffffffff160217905550808273ffffffffffffffffffffffffffffffffffffffff168473ffffffffffffffffffffffffffffffffffffffff167fddf252ad1be2c89b69c2b068fc378daa952ba7f163c4a11628f55a4df523b3ef60405160405180910390a4611e108383836001612403565b505050565b60006002600083815260200190815260200160002060009054906101000a900473ffffffffffffffffffffffffffffffffffffffff169050919050565b8173ffffffffffffffffffffffffffffffffffffffff168373ffffffffffffffffffffffffffffffffffffffff161415611ec1576040517f08c379a0000000000000000000000000000000000000000000000000000000008152600401611eb8906143bf565b60405180910390fd5b80600560008573ffffffffffffffffffffffffffffffffffffffff1673ffffffffffffffffffffffffffffffffffffffff16815260200190815260200160002060008473ffffffffffffffffffffffffffffffffffffffff1673ffffffffffffffffffffffffffffffffffffffff16815260200190815260200160002060006101000a81548160ff0219169083151502179055508173ffffffffffffffffffffffffffffffffffffffff168373ffffffffffffffffffffffffffffffffffffffff167f17307eab39ab6107e8899845ad3d59bd9653f200f220920489ca2b5937696c3183604051611fb29190612929565b60405180910390a3505050565b600080611fcb83610b47565b90508073ffffffffffffffffffffffffffffffffffffffff168473ffffffffffffffffffffffffffffffffffffffff16148061200d575061200c8185611307565b5b8061204b57508373ffffffffffffffffffffffffffffffffffffffff166120338461068f565b73ffffffffffffffffffffffffffffffffffffffff16145b91505092915050565b61205f848484611b1b565b61206b84848484612409565b6120aa576040517f08c379a00000000000000000000000000000000000000000000000000000000081526004016120a190614451565b60405180910390fd5b50505050565b606060405180602001604052806000815250905090565b60606120d2826116dc565b60006120dc6120b0565b905060008151116120fc5760405180602001604052806000815250612127565b80612106846117e8565b60405160200161211792919061405a565b6040516020818303038152906040525b915050919050565b600080600090507a184f03e93ff9f4daa797ed6e38ed64bf6a1f010000000000000000831061218d577a184f03e93ff9f4daa797ed6e38ed64bf6a1f01000000000000000083816121835761218261407e565b5b0492506040810190505b6d04ee2d6d415b85acef810000000083106121ca576d04ee2d6d415b85acef810000000083816121c0576121bf61407e565b5b0492506020810190505b662386f26fc1000083106121f957662386f26fc1000083816121ef576121ee61407e565b5b0492506010810190505b6305f5e1008310612222576305f5e10083816122185761221761407e565b5b0492506008810190505b612710831061224757612710838161223d5761223c61407e565b5b0492506004810190505b6064831061226a57606483816122605761225f61407e565b5b0492506002810190505b600a8310612279576001810190505b80915050919050565b61228c8383612591565b6122996000848484612409565b6122d8576040517f08c379a00000000000000000000000000000000000000000000000000000000081526004016122cf90614451565b60405180910390fd5b505050565b60018111156123fd57600073ffffffffffffffffffffffffffffffffffffffff168473ffffffffffffffffffffffffffffffffffffffff16146123715780600360008673ffffffffffffffffffffffffffffffffffffffff1673ffffffffffffffffffffffffffffffffffffffff16815260200190815260200160002060008282546123699190614471565b925050819055505b600073ffffffffffffffffffffffffffffffffffffffff168373ffffffffffffffffffffffffffffffffffffffff16146123fc5780600360008573ffffffffffffffffffffffffffffffffffffffff1673ffffffffffffffffffffffffffffffffffffffff16815260200190815260200160002060008282546123f4919061410d565b925050819055505b5b50505050565b50505050565b600061242a8473ffffffffffffffffffffffffffffffffffffffff166127af565b15612584578373ffffffffffffffffffffffffffffffffffffffff1663150b7a02612453611727565b8786866040518563ffffffff1660e01b815260040161247594939291906144fa565b6020604051808303816000875af19250505080156124b157506040513d601f19601f820116820180604052508101906124ae919061455b565b60015b612534573d80600081146124e1576040519150601f19603f3d011682016040523d82523d6000602084013e6124e6565b606091505b5060008151141561252c576040517f08c379a000000000000000000000000000000000000000000000000000000000815260040161252390614451565b60405180910390fd5b805181602001fd5b63150b7a0260e01b7bffffffffffffffffffffffffffffffffffffffffffffffffffffffff1916817bffffffffffffffffffffffffffffffffffffffffffffffffffffffff191614915050612589565b600190505b949350505050565b600073ffffffffffffffffffffffffffffffffffffffff168273ffffffffffffffffffffffffffffffffffffffff161415612601576040517f08c379a00000000000000000000000000000000000000000000000000000000081526004016125f8906145d4565b60405180910390fd5b61260a81611ada565b1561264a576040517f08c379a000000000000000000000000000000000000000000000000000000000815260040161264190614640565b60405180910390fd5b6126586000838360016122dd565b61266181611ada565b156126a1576040517f08c379a000000000000000000000000000000000000000000000000000000000815260040161269890614640565b60405180910390fd5b6001600360008473ffffffffffffffffffffffffffffffffffffffff1673ffffffffffffffffffffffffffffffffffffffff16815260200190815260200160002060008282540192505081905550816002600083815260200190815260200160002060006101000a81548173ffffffffffffffffffffffffffffffffffffffff021916908373ffffffffffffffffffffffffffffffffffffffff160217905550808273ffffffffffffffffffffffffffffffffffffffff16600073ffffffffffffffffffffffffffffffffffffffff167fddf252ad1be2c89b69c2b068fc378daa952ba7f163c4a11628f55a4df523b3ef60405160405180910390a46127ab600083836001612403565b5050565b6000808273ffffffffffffffffffffffffffffffffffffffff163b119050919050565b8280546127de90613026565b90600052602060002090601f0160209004810192826128005760008555612847565b82601f1061281957805160ff1916838001178555612847565b82800160010185558215612847579182015b8281111561284657825182559160200191906001019061282b565b5b5090506128549190612858565b5090565b5b80821115612871576000816000905550600101612859565b5090565b6000604051905090565b600080fd5b600080fd5b60007fffffffff0000000000000000000000000000000000000000000000000000000082169050919050565b6128be81612889565b81146128c957600080fd5b50565b6000813590506128db816128b5565b92915050565b6000602082840312156128f7576128f661287f565b5b6000612905848285016128cc565b91505092915050565b60008115159050919050565b6129238161290e565b82525050565b600060208201905061293e600083018461291a565b92915050565b600081519050919050565b600082825260208201905092915050565b60005b8381101561297e578082015181840152602081019050612963565b8381111561298d576000848401525b50505050565b6000601f19601f8301169050919050565b60006129af82612944565b6129b9818561294f565b93506129c9818560208601612960565b6129d281612993565b840191505092915050565b600060208201905081810360008301526129f781846129a4565b905092915050565b6000819050919050565b612a12816129ff565b8114612a1d57600080fd5b50565b600081359050612a2f81612a09565b92915050565b600060208284031215612a4b57612a4a61287f565b5b6000612a5984828501612a20565b91505092915050565b600073ffffffffffffffffffffffffffffffffffffffff82169050919050565b6000612a8d82612a62565b9050919050565b612a9d81612a82565b82525050565b6000602082019050612ab86000830184612a94565b92915050565b612ac781612a82565b8114612ad257600080fd5b50565b600081359050612ae481612abe565b92915050565b60008060408385031215612b0157612b0061287f565b5b6000612b0f85828601612ad5565b9250506020612b2085828601612a20565b9150509250929050565b600080fd5b600080fd5b7f4e487b7100000000000000000000000000000000000000000000000000000000600052604160045260246000fd5b612b6c82612993565b810181811067ffffffffffffffff82111715612b8b57612b8a612b34565b5b80604052505050565b6000612b9e612875565b9050612baa8282612b63565b919050565b600067ffffffffffffffff821115612bca57612bc9612b34565b5b612bd382612993565b9050602081019050919050565b82818337600083830152505050565b6000612c02612bfd84612baf565b612b94565b905082815260208101848484011115612c1e57612c1d612b2f565b5b612c29848285612be0565b509392505050565b600082601f830112612c4657612c45612b2a565b5b8135612c56848260208601612bef565b91505092915050565b60008060408385031215612c7657612c7561287f565b5b6000612c8485828601612a20565b925050602083013567ffffffffffffffff811115612ca557612ca4612884565b5b612cb185828601612c31565b9150509250929050565b600080600060608486031215612cd457612cd361287f565b5b6000612ce286828701612ad5565b9350506020612cf386828701612ad5565b925050604084013567ffffffffffffffff811115612d1457612d13612884565b5b612d2086828701612c31565b9150509250925092565b600080600060608486031215612d4357612d4261287f565b5b6000612d5186828701612ad5565b9350506020612d6286828701612ad5565b9250506040612d7386828701612a20565b9150509250925092565b600060208284031215612d9357612d9261287f565b5b6000612da184828501612ad5565b91505092915050565b612db3816129ff565b82525050565b6000602082019050612dce6000830184612daa565b92915050565b600060a082019050612de96000830188612a94565b612df66020830187612a94565b612e036040830186612a94565b612e106060830185612daa565b612e1d608083018461291a565b9695505050505050565b612e308161290e565b8114612e3b57600080fd5b50565b600081359050612e4d81612e27565b92915050565b60008060408385031215612e6a57612e6961287f565b5b6000612e7885828601612ad5565b9250506020612e8985828601612e3e565b9150509250929050565b600067ffffffffffffffff821115612eae57612ead612b34565b5b612eb782612993565b9050602081019050919050565b6000612ed7612ed284612e93565b612b94565b905082815260208101848484011115612ef357612ef2612b2f565b5b612efe848285612be0565b509392505050565b600082601f830112612f1b57612f1a612b2a565b5b8135612f2b848260208601612ec4565b91505092915050565b60008060008060808587031215612f4e57612f4d61287f565b5b6000612f5c87828801612ad5565b9450506020612f6d87828801612ad5565b9350506040612f7e87828801612a20565b925050606085013567ffffffffffffffff811115612f9f57612f9e612884565b5b612fab87828801612f06565b91505092959194509250565b60008060408385031215612fce57612fcd61287f565b5b6000612fdc85828601612ad5565b9250506020612fed85828601612ad5565b9150509250929050565b7f4e487b7100000000000000000000000000000000000000000000000000000000600052602260045260246000fd5b6000600282049050600182168061303e57607f821691505b6020821081141561305257613051612ff7565b5b50919050565b7f4552433732313a20617070726f76616c20746f2063757272656e74206f776e6560008201527f7200000000000000000000000000000000000000000000000000000000000000602082015250565b60006130b460218361294f565b91506130bf82613058565b604082019050919050565b600060208201905081810360008301526130e3816130a7565b9050919050565b7f4552433732313a20617070726f76652063616c6c6572206973206e6f7420746f60008201527f6b656e206f776e6572206f7220617070726f76656420666f7220616c6c000000602082015250565b6000613146603d8361294f565b9150613151826130ea565b604082019050919050565b6000602082019050818103600083015261317581613139565b9050919050565b600081905092915050565b7f7b00000000000000000000000000000000000000000000000000000000000000600082015250565b60006131bd60018361317c565b91506131c882613187565b600182019050919050565b7f226e616d65223a202250757420796f75722045544820776865726520796f757260008201527f206d6f7574682069732023000000000000000000000000000000000000000000602082015250565b600061322f602b8361317c565b915061323a826131d3565b602b82019050919050565b600061325082612944565b61325a818561317c565b935061326a818560208601612960565b80840191505092915050565b7f222c000000000000000000000000000000000000000000000000000000000000600082015250565b60006132ac60028361317c565b91506132b782613276565b600282019050919050565b7f226465736372697074696f6e223a2022446f206974206f72206c6f736520697460008201527f222c000000000000000000000000000000000000000000000000000000000000602082015250565b600061331e60228361317c565b9150613329826132c2565b602282019050919050565b7f22696d616765223a202200000000000000000000000000000000000000000000600082015250565b600061336a600a8361317c565b915061337582613334565b600a82019050919050565b7f2261747472696275746573223a205b0000000000000000000000000000000000600082015250565b60006133b6600f8361317c565b91506133c182613380565b600f82019050919050565b7f2274726169745f74797065223a2022476f616c222c0000000000000000000000600082015250565b600061340260158361317c565b915061340d826133cc565b601582019050919050565b7f2276616c7565223a202200000000000000000000000000000000000000000000600082015250565b600061344e600a8361317c565b915061345982613418565b600a82019050919050565b7f2200000000000000000000000000000000000000000000000000000000000000600082015250565b600061349a60018361317c565b91506134a582613464565b600182019050919050565b7f7d2c000000000000000000000000000000000000000000000000000000000000600082015250565b60006134e660028361317c565b91506134f1826134b0565b600282019050919050565b7f2274726169745f74797065223a2022416374697665222c000000000000000000600082015250565b600061353260178361317c565b915061353d826134fc565b601782019050919050565b7f2276616c7565223a202274727565220000000000000000000000000000000000600082015250565b600061357e600f8361317c565b915061358982613548565b600f82019050919050565b7f7d00000000000000000000000000000000000000000000000000000000000000600082015250565b60006135ca60018361317c565b91506135d582613594565b600182019050919050565b7f5d00000000000000000000000000000000000000000000000000000000000000600082015250565b600061361660018361317c565b9150613621826135e0565b600182019050919050565b6000613637826131b0565b915061364282613222565b915061364e8286613245565b91506136598261329f565b915061366482613311565b915061366f8261335d565b915061367b8285613245565b91506136868261329f565b9150613691826133a9565b915061369c826131b0565b91506136a7826133f5565b91506136b282613441565b91506136be8284613245565b91506136c98261348d565b91506136d4826134d9565b91506136df826131b0565b91506136ea82613525565b91506136f582613571565b9150613700826135bd565b915061370b82613609565b9150613716826135bd565b9150819050949350505050565b7f646174613a6170706c69636174696f6e2f6a736f6e3b6261736536342c000000600082015250565b6000613759601d8361317c565b915061376482613723565b601d82019050919050565b600061377a8261374c565b91506137868284613245565b915081905092915050565b7f506c656173652075736520616e206578697374696e6720746f6b656e00000000600082015250565b60006137c7601c8361294f565b91506137d282613791565b602082019050919050565b600060208201905081810360008301526137f6816137ba565b9050919050565b7f5468697320746f6b656e20697320736f756c626f756e6420616e642063616e6e60008201527f6f74206265207472616e73666572726564000000000000000000000000000000602082015250565b600061385960318361294f565b9150613864826137fd565b604082019050919050565b600060208201905081810360008301526138888161384c565b9050919050565b7f4552433732313a20696e76616c696420746f6b656e2049440000000000000000600082015250565b60006138c560188361294f565b91506138d08261388f565b602082019050919050565b600060208201905081810360008301526138f4816138b8565b9050919050565b7f4552433732313a2061646472657373207a65726f206973206e6f74206120766160008201527f6c6964206f776e65720000000000000000000000000000000000000000000000602082015250565b600061395760298361294f565b9150613962826138fb565b604082019050919050565b600060208201905081810360008301526139868161394a565b9050919050565b7f3c73766720786d6c6e733d22687474703a2f2f7777772e77332e6f72672f323060008201527f30302f73766722207072657365727665417370656374526174696f3d22784d6960208201527f6e594d696e206d656574222076696577426f783d22302030203335302033353060408201527f223e000000000000000000000000000000000000000000000000000000000000606082015250565b6000613a3560628361317c565b9150613a408261398d565b606282019050919050565b7f3c7374796c653e2e62617365207b2066696c6c3a2077686974653b20666f6e7460008201527f2d66616d696c793a2073657269663b20666f6e742d73697a653a20313470783b60208201527f207d3c2f7374796c653e00000000000000000000000000000000000000000000604082015250565b6000613acd604a8361317c565b9150613ad882613a4b565b604a82019050919050565b7f3c726563742077696474683d223130302522206865696768743d22313030252260008201527f2066696c6c3d22626c61636b22202f3e00000000000000000000000000000000602082015250565b6000613b3f60308361317c565b9150613b4a82613ae3565b603082019050919050565b7f3c7465787420783d223530252220793d223430252220636c6173733d2262617360008201527f652220646f6d696e616e742d626173656c696e653d226d6964646c652220746560208201527f78742d616e63686f723d226d6964646c65223e00000000000000000000000000604082015250565b6000613bd760538361317c565b9150613be282613b55565b605382019050919050565b7f3c2f746578743e00000000000000000000000000000000000000000000000000600082015250565b6000613c2360078361317c565b9150613c2e82613bed565b600782019050919050565b7f3c7465787420783d223530252220793d223530252220636c6173733d2262617360008201527f652220646f6d696e616e742d626173656c696e653d226d6964646c652220746560208201527f78742d616e63686f723d226d6964646c65223e00000000000000000000000000604082015250565b6000613cbb60538361317c565b9150613cc682613c39565b605382019050919050565b7f4174207374616b653a2000000000000000000000000000000000000000000000600082015250565b6000613d07600a8361317c565b9150613d1282613cd1565b600a82019050919050565b7f4d41544943203c2f746578743e00000000000000000000000000000000000000600082015250565b6000613d53600d8361317c565b9150613d5e82613d1d565b600d82019050919050565b7f3c2f7376673e0000000000000000000000000000000000000000000000000000600082015250565b6000613d9f60068361317c565b9150613daa82613d69565b600682019050919050565b6000613dc082613a28565b9150613dcb82613ac0565b9150613dd682613b32565b9150613de182613bca565b9150613ded8285613245565b9150613df882613c16565b9150613e0382613cae565b9150613e0e82613cfa565b9150613e1a8284613245565b9150613e2582613d46565b9150613e3082613d92565b91508190509392505050565b7f646174613a696d6167652f7376672b786d6c3b6261736536342c000000000000600082015250565b6000613e72601a8361317c565b9150613e7d82613e3c565b601a82019050919050565b6000613e9382613e65565b9150613e9f8284613245565b915081905092915050565b7f416c726561647920617070726f76656400000000000000000000000000000000600082015250565b6000613ee060108361294f565b9150613eeb82613eaa565b602082019050919050565b60006020820190508181036000830152613f0f81613ed3565b9050919050565b600081905092915050565b50565b6000613f31600083613f16565b9150613f3c82613f21565b600082019050919050565b6000613f5282613f24565b9150819050919050565b7f4661696c656420746f2073656e64204574686572000000000000000000000000600082015250565b6000613f9260148361294f565b9150613f9d82613f5c565b602082019050919050565b60006020820190508181036000830152613fc181613f85565b9050919050565b7f4552433732313a2063616c6c6572206973206e6f7420746f6b656e206f776e6560008201527f72206f7220617070726f76656400000000000000000000000000000000000000602082015250565b6000614024602d8361294f565b915061402f82613fc8565b604082019050919050565b6000602082019050818103600083015261405381614017565b9050919050565b60006140668285613245565b91506140728284613245565b91508190509392505050565b7f4e487b7100000000000000000000000000000000000000000000000000000000600052601260045260246000fd5b7f4e487b7100000000000000000000000000000000000000000000000000000000600052601160045260246000fd5b60006140e7826129ff565b91506140f2836129ff565b9250826141025761410161407e565b5b828204905092915050565b6000614118826129ff565b9150614123836129ff565b9250827fffffffffffffffffffffffffffffffffffffffffffffffffffffffffffffffff03821115614158576141576140ad565b5b828201905092915050565b600061416e826129ff565b9150614179836129ff565b9250817fffffffffffffffffffffffffffffffffffffffffffffffffffffffffffffffff04831182151516156141b2576141b16140ad565b5b828202905092915050565b7f45524337323155524953746f726167653a2055524920736574206f66206e6f6e60008201527f6578697374656e7420746f6b656e000000000000000000000000000000000000602082015250565b6000614219602e8361294f565b9150614224826141bd565b604082019050919050565b600060208201905081810360008301526142488161420c565b9050919050565b7f4552433732313a207472616e736665722066726f6d20696e636f72726563742060008201527f6f776e6572000000000000000000000000000000000000000000000000000000602082015250565b60006142ab60258361294f565b91506142b68261424f565b604082019050919050565b600060208201905081810360008301526142da8161429e565b9050919050565b7f4552433732313a207472616e7366657220746f20746865207a65726f2061646460008201527f7265737300000000000000000000000000000000000000000000000000000000602082015250565b600061433d60248361294f565b9150614348826142e1565b604082019050919050565b6000602082019050818103600083015261436c81614330565b9050919050565b7f4552433732313a20617070726f766520746f2063616c6c657200000000000000600082015250565b60006143a960198361294f565b91506143b482614373565b602082019050919050565b600060208201905081810360008301526143d88161439c565b9050919050565b7f4552433732313a207472616e7366657220746f206e6f6e20455243373231526560008201527f63656976657220696d706c656d656e7465720000000000000000000000000000602082015250565b600061443b60328361294f565b9150614446826143df565b604082019050919050565b6000602082019050818103600083015261446a8161442e565b9050919050565b600061447c826129ff565b9150614487836129ff565b92508282101561449a576144996140ad565b5b828203905092915050565b600081519050919050565b600082825260208201905092915050565b60006144cc826144a5565b6144d681856144b0565b93506144e6818560208601612960565b6144ef81612993565b840191505092915050565b600060808201905061450f6000830187612a94565b61451c6020830186612a94565b6145296040830185612daa565b818103606083015261453b81846144c1565b905095945050505050565b600081519050614555816128b5565b92915050565b6000602082840312156145715761457061287f565b5b600061457f84828501614546565b91505092915050565b7f4552433732313a206d696e7420746f20746865207a65726f2061646472657373600082015250565b60006145be60208361294f565b91506145c982614588565b602082019050919050565b600060208201905081810360008301526145ed816145b1565b9050919050565b7f4552433732313a20746f6b656e20616c7265616479206d696e74656400000000600082015250565b600061462a601c8361294f565b9150614635826145f4565b602082019050919050565b600060208201905081810360008301526146598161461d565b905091905056fe4142434445464748494a4b4c4d4e4f505152535455565758595a6162636465666768696a6b6c6d6e6f707172737475767778797a303132333435363738392b2fa26469706673582212206231d5403a697374b1b09724b90719d906a5d9b932436834afef97cd674446d364736f6c634300080a0033",
  "linkReferences": {},
  "deployedLinkReferences": {}
}