{
  "_format": "hh-sol-artifact-1",
  "contractName": "PutYourETHWhereYourMouthIs",
  "sourceName": "contracts/nfts.sol",
  "abi": [
    {
      "inputs": [],
      "stateMutability": "nonpayable",
      "type": "constructor"
    },
    {
      "anonymous": false,
      "inputs": [
        {
          "indexed": true,
          "internalType": "address",
          "name": "owner",
          "type": "address"
        },
        {
          "indexed": true,
          "internalType": "address",
          "name": "approved",
          "type": "address"
        },
        {
          "indexed": true,
          "internalType": "uint256",
          "name": "tokenId",
          "type": "uint256"
        }
      ],
      "name": "Approval",
      "type": "event"
    },
    {
      "anonymous": false,
      "inputs": [
        {
          "indexed": true,
          "internalType": "address",
          "name": "owner",
          "type": "address"
        },
        {
          "indexed": true,
          "internalType": "address",
          "name": "operator",
          "type": "address"
        },
        {
          "indexed": false,
          "internalType": "bool",
          "name": "approved",
          "type": "bool"
        }
      ],
      "name": "ApprovalForAll",
      "type": "event"
    },
    {
      "anonymous": false,
      "inputs": [
        {
          "indexed": false,
          "internalType": "uint256",
          "name": "",
          "type": "uint256"
        }
      ],
      "name": "Approved",
      "type": "event"
    },
    {
      "anonymous": false,
      "inputs": [
        {
          "indexed": true,
          "internalType": "address",
          "name": "from",
          "type": "address"
        },
        {
          "indexed": true,
          "internalType": "address",
          "name": "to",
          "type": "address"
        },
        {
          "indexed": true,
          "internalType": "uint256",
          "name": "tokenId",
          "type": "uint256"
        }
      ],
      "name": "Transfer",
      "type": "event"
    },
    {
      "inputs": [
        {
          "internalType": "uint256",
          "name": "tokenId",
          "type": "uint256"
        }
      ],
      "name": "achieved",
      "outputs": [],
      "stateMutability": "nonpayable",
      "type": "function"
    },
    {
      "inputs": [
        {
          "internalType": "address",
          "name": "to",
          "type": "address"
        },
        {
          "internalType": "uint256",
          "name": "tokenId",
          "type": "uint256"
        }
      ],
      "name": "approve",
      "outputs": [],
      "stateMutability": "nonpayable",
      "type": "function"
    },
    {
      "inputs": [
        {
          "internalType": "address",
          "name": "owner",
          "type": "address"
        }
      ],
      "name": "balanceOf",
      "outputs": [
        {
          "internalType": "uint256",
          "name": "",
          "type": "uint256"
        }
      ],
      "stateMutability": "view",
      "type": "function"
    },
    {
      "inputs": [
        {
          "internalType": "uint256",
          "name": "tokenId",
          "type": "uint256"
        }
      ],
      "name": "failed",
      "outputs": [],
      "stateMutability": "nonpayable",
      "type": "function"
    },
    {
      "inputs": [
        {
          "internalType": "uint256",
          "name": "tokenId",
          "type": "uint256"
        },
        {
          "internalType": "string",
          "name": "goal",
          "type": "string"
        }
      ],
      "name": "generateNFT",
      "outputs": [
        {
          "internalType": "string",
          "name": "",
          "type": "string"
        }
      ],
      "stateMutability": "nonpayable",
      "type": "function"
    },
    {
      "inputs": [
        {
          "internalType": "uint256",
          "name": "tokenId",
          "type": "uint256"
        }
      ],
      "name": "getApproved",
      "outputs": [
        {
          "internalType": "address",
          "name": "",
          "type": "address"
        }
      ],
      "stateMutability": "view",
      "type": "function"
    },
    {
      "inputs": [
        {
          "internalType": "uint256",
          "name": "tokenId",
          "type": "uint256"
        }
      ],
      "name": "getStake",
      "outputs": [
        {
          "internalType": "string",
          "name": "",
          "type": "string"
        }
      ],
      "stateMutability": "view",
      "type": "function"
    },
    {
      "inputs": [
        {
          "internalType": "uint256",
          "name": "tokenId",
          "type": "uint256"
        },
        {
          "internalType": "string",
          "name": "goal",
          "type": "string"
        }
      ],
      "name": "getTokenURI",
      "outputs": [
        {
          "internalType": "string",
          "name": "",
          "type": "string"
        }
      ],
      "stateMutability": "nonpayable",
      "type": "function"
    },
    {
      "inputs": [
        {
          "internalType": "address",
          "name": "owner",
          "type": "address"
        },
        {
          "internalType": "address",
          "name": "operator",
          "type": "address"
        }
      ],
      "name": "isApprovedForAll",
      "outputs": [
        {
          "internalType": "bool",
          "name": "",
          "type": "bool"
        }
      ],
      "stateMutability": "view",
      "type": "function"
    },
    {
      "inputs": [
        {
          "internalType": "address",
          "name": "arbiter",
          "type": "address"
        },
        {
          "internalType": "address",
          "name": "_counter_party",
          "type": "address"
        },
        {
          "internalType": "string",
          "name": "goal",
          "type": "string"
        }
      ],
      "name": "mint",
      "outputs": [],
      "stateMutability": "payable",
      "type": "function"
    },
    {
      "inputs": [],
      "name": "name",
      "outputs": [
        {
          "internalType": "string",
          "name": "",
          "type": "string"
        }
      ],
      "stateMutability": "view",
      "type": "function"
    },
    {
      "inputs": [
        {
          "internalType": "uint256",
          "name": "tokenId",
          "type": "uint256"
        }
      ],
      "name": "ownerOf",
      "outputs": [
        {
          "internalType": "address",
          "name": "",
          "type": "address"
        }
      ],
      "stateMutability": "view",
      "type": "function"
    },
    {
      "inputs": [
        {
          "internalType": "address",
          "name": "from",
          "type": "address"
        },
        {
          "internalType": "address",
          "name": "to",
          "type": "address"
        },
        {
          "internalType": "uint256",
          "name": "tokenId",
          "type": "uint256"
        }
      ],
      "name": "safeTransferFrom",
      "outputs": [],
      "stateMutability": "nonpayable",
      "type": "function"
    },
    {
      "inputs": [
        {
          "internalType": "address",
          "name": "from",
          "type": "address"
        },
        {
          "internalType": "address",
          "name": "to",
          "type": "address"
        },
        {
          "internalType": "uint256",
          "name": "tokenId",
          "type": "uint256"
        },
        {
          "internalType": "bytes",
          "name": "data",
          "type": "bytes"
        }
      ],
      "name": "safeTransferFrom",
      "outputs": [],
      "stateMutability": "nonpayable",
      "type": "function"
    },
    {
      "inputs": [
        {
          "internalType": "address",
          "name": "operator",
          "type": "address"
        },
        {
          "internalType": "bool",
          "name": "approved",
          "type": "bool"
        }
      ],
      "name": "setApprovalForAll",
      "outputs": [],
      "stateMutability": "nonpayable",
      "type": "function"
    },
    {
      "inputs": [
        {
          "internalType": "bytes4",
          "name": "interfaceId",
          "type": "bytes4"
        }
      ],
      "name": "supportsInterface",
      "outputs": [
        {
          "internalType": "bool",
          "name": "",
          "type": "bool"
        }
      ],
      "stateMutability": "view",
      "type": "function"
    },
    {
      "inputs": [],
      "name": "symbol",
      "outputs": [
        {
          "internalType": "string",
          "name": "",
          "type": "string"
        }
      ],
      "stateMutability": "view",
      "type": "function"
    },
    {
      "inputs": [
        {
          "internalType": "uint256",
          "name": "",
          "type": "uint256"
        }
      ],
      "name": "tokenIdToEscrows",
      "outputs": [
        {
          "internalType": "address",
          "name": "arbiter",
          "type": "address"
        },
        {
          "internalType": "address",
          "name": "beneficiary",
          "type": "address"
        },
        {
          "internalType": "address",
          "name": "counter_party",
          "type": "address"
        },
        {
          "internalType": "uint256",
          "name": "amount",
          "type": "uint256"
        },
        {
          "internalType": "bool",
          "name": "isApproved",
          "type": "bool"
        }
      ],
      "stateMutability": "view",
      "type": "function"
    },
    {
      "inputs": [
        {
          "internalType": "uint256",
          "name": "tokenId",
          "type": "uint256"
        }
      ],
      "name": "tokenURI",
      "outputs": [
        {
          "internalType": "string",
          "name": "",
          "type": "string"
        }
      ],
      "stateMutability": "view",
      "type": "function"
    },
    {
      "inputs": [
        {
          "internalType": "address",
          "name": "from",
          "type": "address"
        },
        {
          "internalType": "address",
          "name": "to",
          "type": "address"
        },
        {
          "internalType": "uint256",
          "name": "tokenId",
          "type": "uint256"
        }
      ],
      "name": "transferFrom",
      "outputs": [],
      "stateMutability": "nonpayable",
      "type": "function"
    }
  ],
  "bytecode": "0x60806040523480156200001157600080fd5b506040518060400160405280601a81526020017f507574596f75724554485768657265596f75724d6f75746849730000000000008152506040518060400160405280600381526020017f5059450000000000000000000000000000000000000000000000000000000000815250816000908051906020019062000096929190620000b8565b508060019080519060200190620000af929190620000b8565b505050620001cd565b828054620000c69062000197565b90600052602060002090601f016020900481019282620000ea576000855562000136565b82601f106200010557805160ff191683800117855562000136565b8280016001018555821562000136579182015b828111156200013557825182559160200191906001019062000118565b5b50905062000145919062000149565b5090565b5b80821115620001645760008160009055506001016200014a565b5090565b7f4e487b7100000000000000000000000000000000000000000000000000000000600052602260045260246000fd5b60006002820490506001821680620001b057607f821691505b60208210811415620001c757620001c662000168565b5b50919050565b6147ea80620001dd6000396000f3fe60806040526004361061011f5760003560e01c806375d4d8af116100a0578063b88d4fde11610064578063b88d4fde14610412578063c87b56dd1461043b578063ce325bf814610478578063e985e9c5146104b5578063f2e5f682146104f25761011f565b806375d4d8af1461031757806395d89b41146103545780639de0d6231461037f578063a22cb465146103c0578063adb80db9146103e95761011f565b8063221375a6116100e7578063221375a61461022f57806323b872dd1461024b57806342842e0e146102745780636352211e1461029d57806370a08231146102da5761011f565b806301ffc9a71461012457806306fdde0314610161578063081812fc1461018c578063095ea7b3146101c95780630c6ab5a7146101f2575b600080fd5b34801561013057600080fd5b5061014b60048036038101906101469190612989565b61051b565b60405161015891906129d1565b60405180910390f35b34801561016d57600080fd5b506101766105fd565b6040516101839190612a85565b60405180910390f35b34801561019857600080fd5b506101b360048036038101906101ae9190612add565b61068f565b6040516101c09190612b4b565b60405180910390f35b3480156101d557600080fd5b506101f060048036038101906101eb9190612b92565b6106d5565b005b3480156101fe57600080fd5b5061021960048036038101906102149190612d07565b6107ed565b6040516102269190612a85565b60405180910390f35b61024960048036038101906102449190612d63565b610859565b005b34801561025757600080fd5b50610272600480360381019061026d9190612dd2565b610a15565b005b34801561028057600080fd5b5061029b60048036038101906102969190612dd2565b610b27565b005b3480156102a957600080fd5b506102c460048036038101906102bf9190612add565b610b47565b6040516102d19190612b4b565b60405180910390f35b3480156102e657600080fd5b5061030160048036038101906102fc9190612e25565b610bce565b60405161030e9190612e61565b60405180910390f35b34801561032357600080fd5b5061033e60048036038101906103399190612d07565b610c86565b60405161034b9190612a85565b60405180910390f35b34801561036057600080fd5b50610369610ce7565b6040516103769190612a85565b60405180910390f35b34801561038b57600080fd5b506103a660048036038101906103a19190612add565b610d79565b6040516103b7959493929190612e7c565b60405180910390f35b3480156103cc57600080fd5b506103e760048036038101906103e29190612efb565b610e1c565b005b3480156103f557600080fd5b50610410600480360381019061040b9190612add565b610e32565b005b34801561041e57600080fd5b5061043960048036038101906104349190612fdc565b6111a5565b005b34801561044757600080fd5b50610462600480360381019061045d9190612add565b611207565b60405161046f9190612a85565b60405180910390f35b34801561048457600080fd5b5061049f600480360381019061049a9190612add565b61131a565b6040516104ac9190612a85565b60405180910390f35b3480156104c157600080fd5b506104dc60048036038101906104d7919061305f565b61135b565b6040516104e991906129d1565b60405180910390f35b3480156104fe57600080fd5b5061051960048036038101906105149190612add565b6113ef565b005b60007f80ac58cd000000000000000000000000000000000000000000000000000000007bffffffffffffffffffffffffffffffffffffffffffffffffffffffff1916827bffffffffffffffffffffffffffffffffffffffffffffffffffffffff191614806105e657507f5b5e139f000000000000000000000000000000000000000000000000000000007bffffffffffffffffffffffffffffffffffffffffffffffffffffffff1916827bffffffffffffffffffffffffffffffffffffffffffffffffffffffff1916145b806105f657506105f58261171a565b5b9050919050565b60606000805461060c906130ce565b80601f0160208091040260200160405190810160405280929190818152602001828054610638906130ce565b80156106855780601f1061065a57610100808354040283529160200191610685565b820191906000526020600020905b81548152906001019060200180831161066857829003601f168201915b5050505050905090565b600061069a82611784565b6004600083815260200190815260200160002060009054906101000a900473ffffffffffffffffffffffffffffffffffffffff169050919050565b60006106e082610b47565b90508073ffffffffffffffffffffffffffffffffffffffff168373ffffffffffffffffffffffffffffffffffffffff161415610751576040517f08c379a000000000000000000000000000000000000000000000000000000000815260040161074890613172565b60405180910390fd5b8073ffffffffffffffffffffffffffffffffffffffff166107706117cf565b73ffffffffffffffffffffffffffffffffffffffff16148061079f575061079e816107996117cf565b61135b565b5b6107de576040517f08c379a00000000000000000000000000000000000000000000000000000000081526004016107d590613204565b60405180910390fd5b6107e883836117d7565b505050565b606060006107fa84611890565b6108048585610c86565b84604051602001610817939291906136d4565b604051602081830303815290604052905061083181611968565b6040516020016108419190613817565b60405160208183030381529060405291505092915050565b60006108656007611acc565b90506040518060a001604052808573ffffffffffffffffffffffffffffffffffffffff1681526020013373ffffffffffffffffffffffffffffffffffffffff1681526020018473ffffffffffffffffffffffffffffffffffffffff168152602001348152602001600015158152506008600083815260200190815260200160002060008201518160000160006101000a81548173ffffffffffffffffffffffffffffffffffffffff021916908373ffffffffffffffffffffffffffffffffffffffff16021790555060208201518160010160006101000a81548173ffffffffffffffffffffffffffffffffffffffff021916908373ffffffffffffffffffffffffffffffffffffffff16021790555060408201518160020160006101000a81548173ffffffffffffffffffffffffffffffffffffffff021916908373ffffffffffffffffffffffffffffffffffffffff1602179055506060820151816003015560808201518160040160006101000a81548160ff0219169083151502179055509050506109f23382611ada565b610a0581610a0083856107ed565b611af8565b610a0f6007611b6c565b50505050565b610a1e81611b82565b610a5d576040517f08c379a0000000000000000000000000000000000000000000000000000000008152600401610a5490613885565b60405180910390fd5b6002600114610aa1576040517f08c379a0000000000000000000000000000000000000000000000000000000008152600401610a9890613917565b60405180910390fd5b8273ffffffffffffffffffffffffffffffffffffffff16610ac182610b47565b73ffffffffffffffffffffffffffffffffffffffff1614610b17576040517f08c379a0000000000000000000000000000000000000000000000000000000008152600401610b0e90613885565b60405180910390fd5b610b22838383611bc3565b505050565b610b42838383604051806020016040528060008152506111a5565b505050565b600080610b5383611ebd565b9050600073ffffffffffffffffffffffffffffffffffffffff168173ffffffffffffffffffffffffffffffffffffffff161415610bc5576040517f08c379a0000000000000000000000000000000000000000000000000000000008152600401610bbc90613983565b60405180910390fd5b80915050919050565b60008073ffffffffffffffffffffffffffffffffffffffff168273ffffffffffffffffffffffffffffffffffffffff161415610c3f576040517f08c379a0000000000000000000000000000000000000000000000000000000008152600401610c3690613a15565b60405180910390fd5b600360008373ffffffffffffffffffffffffffffffffffffffff1673ffffffffffffffffffffffffffffffffffffffff168152602001908152602001600020549050919050565b6060600082610c948561131a565b604051602001610ca5929190613e5d565b6040516020818303038152906040529050610cbf81611968565b604051602001610ccf9190613f30565b60405160208183030381529060405291505092915050565b606060018054610cf6906130ce565b80601f0160208091040260200160405190810160405280929190818152602001828054610d22906130ce565b8015610d6f5780601f10610d4457610100808354040283529160200191610d6f565b820191906000526020600020905b815481529060010190602001808311610d5257829003601f168201915b5050505050905090565b60086020528060005260406000206000915090508060000160009054906101000a900473ffffffffffffffffffffffffffffffffffffffff16908060010160009054906101000a900473ffffffffffffffffffffffffffffffffffffffff16908060020160009054906101000a900473ffffffffffffffffffffffffffffffffffffffff16908060030154908060040160009054906101000a900460ff16905085565b610e2e610e276117cf565b8383611efa565b5050565b610e3b81611b82565b610e7a576040517f08c379a0000000000000000000000000000000000000000000000000000000008152600401610e7190613885565b60405180910390fd5b6000600860008381526020019081526020016000206040518060a00160405290816000820160009054906101000a900473ffffffffffffffffffffffffffffffffffffffff1673ffffffffffffffffffffffffffffffffffffffff1673ffffffffffffffffffffffffffffffffffffffff1681526020016001820160009054906101000a900473ffffffffffffffffffffffffffffffffffffffff1673ffffffffffffffffffffffffffffffffffffffff1673ffffffffffffffffffffffffffffffffffffffff1681526020016002820160009054906101000a900473ffffffffffffffffffffffffffffffffffffffff1673ffffffffffffffffffffffffffffffffffffffff1673ffffffffffffffffffffffffffffffffffffffff168152602001600382015481526020016004820160009054906101000a900460ff1615151515815250509050806000015173ffffffffffffffffffffffffffffffffffffffff163373ffffffffffffffffffffffffffffffffffffffff1614611035576040517f08c379a000000000000000000000000000000000000000000000000000000000815260040161102c90613f9e565b60405180910390fd5b600015158160800151151514611080576040517f08c379a00000000000000000000000000000000000000000000000000000000081526004016110779061400a565b60405180910390fd5b60016008600084815260200190815260200160002060040160006101000a81548160ff0219169083151502179055506000816060015190506000826020015173ffffffffffffffffffffffffffffffffffffffff16826040516110e29061405b565b60006040518083038185875af1925050503d806000811461111f576040519150601f19603f3d011682016040523d82523d6000602084013e611124565b606091505b5050905080611168576040517f08c379a000000000000000000000000000000000000000000000000000000000815260040161115f906140bc565b60405180910390fd5b7f3ad93af63cb7967b23e4fb500b7d7d28b07516325dcf341f88bebf959d82c1cb826040516111979190612e61565b60405180910390a150505050565b6111b66111b06117cf565b83612067565b6111f5576040517f08c379a00000000000000000000000000000000000000000000000000000000081526004016111ec9061414e565b60405180910390fd5b611201848484846120fc565b50505050565b606061121282611784565b6000600660008481526020019081526020016000208054611232906130ce565b80601f016020809104026020016040519081016040528092919081815260200182805461125e906130ce565b80156112ab5780601f10611280576101008083540402835291602001916112ab565b820191906000526020600020905b81548152906001019060200180831161128e57829003601f168201915b5050505050905060006112bc612158565b90506000815114156112d2578192505050611315565b6000825111156113075780826040516020016112ef92919061416e565b60405160208183030381529060405292505050611315565b6113108461216f565b925050505b919050565b60606000670de0b6b3a7640000600860008581526020019081526020016000206003015461134891906141f0565b905061135381611890565b915050919050565b6000600560008473ffffffffffffffffffffffffffffffffffffffff1673ffffffffffffffffffffffffffffffffffffffff16815260200190815260200160002060008373ffffffffffffffffffffffffffffffffffffffff1673ffffffffffffffffffffffffffffffffffffffff16815260200190815260200160002060009054906101000a900460ff16905092915050565b6000600860008381526020019081526020016000206040518060a00160405290816000820160009054906101000a900473ffffffffffffffffffffffffffffffffffffffff1673ffffffffffffffffffffffffffffffffffffffff1673ffffffffffffffffffffffffffffffffffffffff1681526020016001820160009054906101000a900473ffffffffffffffffffffffffffffffffffffffff1673ffffffffffffffffffffffffffffffffffffffff1673ffffffffffffffffffffffffffffffffffffffff1681526020016002820160009054906101000a900473ffffffffffffffffffffffffffffffffffffffff1673ffffffffffffffffffffffffffffffffffffffff1673ffffffffffffffffffffffffffffffffffffffff168152602001600382015481526020016004820160009054906101000a900460ff1615151515815250509050806000015173ffffffffffffffffffffffffffffffffffffffff163373ffffffffffffffffffffffffffffffffffffffff16146115aa576040517f08c379a00000000000000000000000000000000000000000000000000000000081526004016115a190613f9e565b60405180910390fd5b6000151581608001511515146115f5576040517f08c379a00000000000000000000000000000000000000000000000000000000081526004016115ec9061400a565b60405180910390fd5b60016008600084815260200190815260200160002060040160006101000a81548160ff0219169083151502179055506000816060015190506000826040015173ffffffffffffffffffffffffffffffffffffffff16826040516116579061405b565b60006040518083038185875af1925050503d8060008114611694576040519150601f19603f3d011682016040523d82523d6000602084013e611699565b606091505b50509050806116dd576040517f08c379a00000000000000000000000000000000000000000000000000000000081526004016116d4906140bc565b60405180910390fd5b7f3ad93af63cb7967b23e4fb500b7d7d28b07516325dcf341f88bebf959d82c1cb8260405161170c9190612e61565b60405180910390a150505050565b60007f01ffc9a7000000000000000000000000000000000000000000000000000000007bffffffffffffffffffffffffffffffffffffffffffffffffffffffff1916827bffffffffffffffffffffffffffffffffffffffffffffffffffffffff1916149050919050565b61178d81611b82565b6117cc576040517f08c379a00000000000000000000000000000000000000000000000000000000081526004016117c390613983565b60405180910390fd5b50565b600033905090565b816004600083815260200190815260200160002060006101000a81548173ffffffffffffffffffffffffffffffffffffffff021916908373ffffffffffffffffffffffffffffffffffffffff160217905550808273ffffffffffffffffffffffffffffffffffffffff1661184a83610b47565b73ffffffffffffffffffffffffffffffffffffffff167f8c5be1e5ebec7d5bd14f71427d1e84f3dd0314c0f7b2291e5b200ac8c7c3b92560405160405180910390a45050565b60606000600161189f846121d7565b01905060008167ffffffffffffffff8111156118be576118bd612bdc565b5b6040519080825280601f01601f1916602001820160405280156118f05781602001600182028036833780820191505090505b509050600082602001820190505b60011561195d578080600190039150507f3031323334353637383961626364656600000000000000000000000000000000600a86061a8153600a858161194757611946614192565b5b04945060008514156119585761195d565b6118fe565b819350505050919050565b606060008251141561198b57604051806020016040528060008152509050611ac7565b600060405180606001604052806040815260200161477560409139905060006003600285516119ba9190614221565b6119c491906141f0565b60046119d09190614277565b67ffffffffffffffff8111156119e9576119e8612bdc565b5b6040519080825280601f01601f191660200182016040528015611a1b5781602001600182028036833780820191505090505b509050600182016020820185865187015b80821015611a87576003820191508151603f8160121c168501518453600184019350603f81600c1c168501518453600184019350603f8160061c168501518453600184019350603f8116850151845360018401935050611a2c565b5050600386510660018114611aa35760028114611ab657611abe565b603d6001830353603d6002830353611abe565b603d60018303535b50505080925050505b919050565b600081600001549050919050565b611af482826040518060200160405280600081525061232a565b5050565b611b0182611b82565b611b40576040517f08c379a0000000000000000000000000000000000000000000000000000000008152600401611b3790614343565b60405180910390fd5b80600660008481526020019081526020016000209080519060200190611b6792919061287a565b505050565b6001816000016000828254019250508190555050565b60008073ffffffffffffffffffffffffffffffffffffffff16611ba483611ebd565b73ffffffffffffffffffffffffffffffffffffffff1614159050919050565b8273ffffffffffffffffffffffffffffffffffffffff16611be382610b47565b73ffffffffffffffffffffffffffffffffffffffff1614611c39576040517f08c379a0000000000000000000000000000000000000000000000000000000008152600401611c30906143d5565b60405180910390fd5b600073ffffffffffffffffffffffffffffffffffffffff168273ffffffffffffffffffffffffffffffffffffffff161415611ca9576040517f08c379a0000000000000000000000000000000000000000000000000000000008152600401611ca090614467565b60405180910390fd5b611cb68383836001612385565b8273ffffffffffffffffffffffffffffffffffffffff16611cd682610b47565b73ffffffffffffffffffffffffffffffffffffffff1614611d2c576040517f08c379a0000000000000000000000000000000000000000000000000000000008152600401611d23906143d5565b60405180910390fd5b6004600082815260200190815260200160002060006101000a81549073ffffffffffffffffffffffffffffffffffffffff02191690556001600360008573ffffffffffffffffffffffffffffffffffffffff1673ffffffffffffffffffffffffffffffffffffffff168152602001908152602001600020600082825403925050819055506001600360008473ffffffffffffffffffffffffffffffffffffffff1673ffffffffffffffffffffffffffffffffffffffff16815260200190815260200160002060008282540192505081905550816002600083815260200190815260200160002060006101000a81548173ffffffffffffffffffffffffffffffffffffffff021916908373ffffffffffffffffffffffffffffffffffffffff160217905550808273ffffffffffffffffffffffffffffffffffffffff168473ffffffffffffffffffffffffffffffffffffffff167fddf252ad1be2c89b69c2b068fc378daa952ba7f163c4a11628f55a4df523b3ef60405160405180910390a4611eb883838360016124ab565b505050565b60006002600083815260200190815260200160002060009054906101000a900473ffffffffffffffffffffffffffffffffffffffff169050919050565b8173ffffffffffffffffffffffffffffffffffffffff168373ffffffffffffffffffffffffffffffffffffffff161415611f69576040517f08c379a0000000000000000000000000000000000000000000000000000000008152600401611f60906144d3565b60405180910390fd5b80600560008573ffffffffffffffffffffffffffffffffffffffff1673ffffffffffffffffffffffffffffffffffffffff16815260200190815260200160002060008473ffffffffffffffffffffffffffffffffffffffff1673ffffffffffffffffffffffffffffffffffffffff16815260200190815260200160002060006101000a81548160ff0219169083151502179055508173ffffffffffffffffffffffffffffffffffffffff168373ffffffffffffffffffffffffffffffffffffffff167f17307eab39ab6107e8899845ad3d59bd9653f200f220920489ca2b5937696c318360405161205a91906129d1565b60405180910390a3505050565b60008061207383610b47565b90508073ffffffffffffffffffffffffffffffffffffffff168473ffffffffffffffffffffffffffffffffffffffff1614806120b557506120b4818561135b565b5b806120f357508373ffffffffffffffffffffffffffffffffffffffff166120db8461068f565b73ffffffffffffffffffffffffffffffffffffffff16145b91505092915050565b612107848484611bc3565b612113848484846124b1565b612152576040517f08c379a000000000000000000000000000000000000000000000000000000000815260040161214990614565565b60405180910390fd5b50505050565b606060405180602001604052806000815250905090565b606061217a82611784565b6000612184612158565b905060008151116121a457604051806020016040528060008152506121cf565b806121ae84611890565b6040516020016121bf92919061416e565b6040516020818303038152906040525b915050919050565b600080600090507a184f03e93ff9f4daa797ed6e38ed64bf6a1f0100000000000000008310612235577a184f03e93ff9f4daa797ed6e38ed64bf6a1f010000000000000000838161222b5761222a614192565b5b0492506040810190505b6d04ee2d6d415b85acef81000000008310612272576d04ee2d6d415b85acef8100000000838161226857612267614192565b5b0492506020810190505b662386f26fc1000083106122a157662386f26fc10000838161229757612296614192565b5b0492506010810190505b6305f5e10083106122ca576305f5e10083816122c0576122bf614192565b5b0492506008810190505b61271083106122ef5761271083816122e5576122e4614192565b5b0492506004810190505b60648310612312576064838161230857612307614192565b5b0492506002810190505b600a8310612321576001810190505b80915050919050565b6123348383612639565b61234160008484846124b1565b612380576040517f08c379a000000000000000000000000000000000000000000000000000000000815260040161237790614565565b60405180910390fd5b505050565b60018111156124a557600073ffffffffffffffffffffffffffffffffffffffff168473ffffffffffffffffffffffffffffffffffffffff16146124195780600360008673ffffffffffffffffffffffffffffffffffffffff1673ffffffffffffffffffffffffffffffffffffffff16815260200190815260200160002060008282546124119190614585565b925050819055505b600073ffffffffffffffffffffffffffffffffffffffff168373ffffffffffffffffffffffffffffffffffffffff16146124a45780600360008573ffffffffffffffffffffffffffffffffffffffff1673ffffffffffffffffffffffffffffffffffffffff168152602001908152602001600020600082825461249c9190614221565b925050819055505b5b50505050565b50505050565b60006124d28473ffffffffffffffffffffffffffffffffffffffff16612857565b1561262c578373ffffffffffffffffffffffffffffffffffffffff1663150b7a026124fb6117cf565b8786866040518563ffffffff1660e01b815260040161251d949392919061460e565b6020604051808303816000875af192505050801561255957506040513d601f19601f82011682018060405250810190612556919061466f565b60015b6125dc573d8060008114612589576040519150601f19603f3d011682016040523d82523d6000602084013e61258e565b606091505b506000815114156125d4576040517f08c379a00000000000000000000000000000000000000000000000000000000081526004016125cb90614565565b60405180910390fd5b805181602001fd5b63150b7a0260e01b7bffffffffffffffffffffffffffffffffffffffffffffffffffffffff1916817bffffffffffffffffffffffffffffffffffffffffffffffffffffffff191614915050612631565b600190505b949350505050565b600073ffffffffffffffffffffffffffffffffffffffff168273ffffffffffffffffffffffffffffffffffffffff1614156126a9576040517f08c379a00000000000000000000000000000000000000000000000000000000081526004016126a0906146e8565b60405180910390fd5b6126b281611b82565b156126f2576040517f08c379a00000000000000000000000000000000000000000000000000000000081526004016126e990614754565b60405180910390fd5b612700600083836001612385565b61270981611b82565b15612749576040517f08c379a000000000000000000000000000000000000000000000000000000000815260040161274090614754565b60405180910390fd5b6001600360008473ffffffffffffffffffffffffffffffffffffffff1673ffffffffffffffffffffffffffffffffffffffff16815260200190815260200160002060008282540192505081905550816002600083815260200190815260200160002060006101000a81548173ffffffffffffffffffffffffffffffffffffffff021916908373ffffffffffffffffffffffffffffffffffffffff160217905550808273ffffffffffffffffffffffffffffffffffffffff16600073ffffffffffffffffffffffffffffffffffffffff167fddf252ad1be2c89b69c2b068fc378daa952ba7f163c4a11628f55a4df523b3ef60405160405180910390a46128536000838360016124ab565b5050565b6000808273ffffffffffffffffffffffffffffffffffffffff163b119050919050565b828054612886906130ce565b90600052602060002090601f0160209004810192826128a857600085556128ef565b82601f106128c157805160ff19168380011785556128ef565b828001600101855582156128ef579182015b828111156128ee5782518255916020019190600101906128d3565b5b5090506128fc9190612900565b5090565b5b80821115612919576000816000905550600101612901565b5090565b6000604051905090565b600080fd5b600080fd5b60007fffffffff0000000000000000000000000000000000000000000000000000000082169050919050565b61296681612931565b811461297157600080fd5b50565b6000813590506129838161295d565b92915050565b60006020828403121561299f5761299e612927565b5b60006129ad84828501612974565b91505092915050565b60008115159050919050565b6129cb816129b6565b82525050565b60006020820190506129e660008301846129c2565b92915050565b600081519050919050565b600082825260208201905092915050565b60005b83811015612a26578082015181840152602081019050612a0b565b83811115612a35576000848401525b50505050565b6000601f19601f8301169050919050565b6000612a57826129ec565b612a6181856129f7565b9350612a71818560208601612a08565b612a7a81612a3b565b840191505092915050565b60006020820190508181036000830152612a9f8184612a4c565b905092915050565b6000819050919050565b612aba81612aa7565b8114612ac557600080fd5b50565b600081359050612ad781612ab1565b92915050565b600060208284031215612af357612af2612927565b5b6000612b0184828501612ac8565b91505092915050565b600073ffffffffffffffffffffffffffffffffffffffff82169050919050565b6000612b3582612b0a565b9050919050565b612b4581612b2a565b82525050565b6000602082019050612b606000830184612b3c565b92915050565b612b6f81612b2a565b8114612b7a57600080fd5b50565b600081359050612b8c81612b66565b92915050565b60008060408385031215612ba957612ba8612927565b5b6000612bb785828601612b7d565b9250506020612bc885828601612ac8565b9150509250929050565b600080fd5b600080fd5b7f4e487b7100000000000000000000000000000000000000000000000000000000600052604160045260246000fd5b612c1482612a3b565b810181811067ffffffffffffffff82111715612c3357612c32612bdc565b5b80604052505050565b6000612c4661291d565b9050612c528282612c0b565b919050565b600067ffffffffffffffff821115612c7257612c71612bdc565b5b612c7b82612a3b565b9050602081019050919050565b82818337600083830152505050565b6000612caa612ca584612c57565b612c3c565b905082815260208101848484011115612cc657612cc5612bd7565b5b612cd1848285612c88565b509392505050565b600082601f830112612cee57612ced612bd2565b5b8135612cfe848260208601612c97565b91505092915050565b60008060408385031215612d1e57612d1d612927565b5b6000612d2c85828601612ac8565b925050602083013567ffffffffffffffff811115612d4d57612d4c61292c565b5b612d5985828601612cd9565b9150509250929050565b600080600060608486031215612d7c57612d7b612927565b5b6000612d8a86828701612b7d565b9350506020612d9b86828701612b7d565b925050604084013567ffffffffffffffff811115612dbc57612dbb61292c565b5b612dc886828701612cd9565b9150509250925092565b600080600060608486031215612deb57612dea612927565b5b6000612df986828701612b7d565b9350506020612e0a86828701612b7d565b9250506040612e1b86828701612ac8565b9150509250925092565b600060208284031215612e3b57612e3a612927565b5b6000612e4984828501612b7d565b91505092915050565b612e5b81612aa7565b82525050565b6000602082019050612e766000830184612e52565b92915050565b600060a082019050612e916000830188612b3c565b612e9e6020830187612b3c565b612eab6040830186612b3c565b612eb86060830185612e52565b612ec560808301846129c2565b9695505050505050565b612ed8816129b6565b8114612ee357600080fd5b50565b600081359050612ef581612ecf565b92915050565b60008060408385031215612f1257612f11612927565b5b6000612f2085828601612b7d565b9250506020612f3185828601612ee6565b9150509250929050565b600067ffffffffffffffff821115612f5657612f55612bdc565b5b612f5f82612a3b565b9050602081019050919050565b6000612f7f612f7a84612f3b565b612c3c565b905082815260208101848484011115612f9b57612f9a612bd7565b5b612fa6848285612c88565b509392505050565b600082601f830112612fc357612fc2612bd2565b5b8135612fd3848260208601612f6c565b91505092915050565b60008060008060808587031215612ff657612ff5612927565b5b600061300487828801612b7d565b945050602061301587828801612b7d565b935050604061302687828801612ac8565b925050606085013567ffffffffffffffff8111156130475761304661292c565b5b61305387828801612fae565b91505092959194509250565b6000806040838503121561307657613075612927565b5b600061308485828601612b7d565b925050602061309585828601612b7d565b9150509250929050565b7f4e487b7100000000000000000000000000000000000000000000000000000000600052602260045260246000fd5b600060028204905060018216806130e657607f821691505b602082108114156130fa576130f961309f565b5b50919050565b7f4552433732313a20617070726f76616c20746f2063757272656e74206f776e6560008201527f7200000000000000000000000000000000000000000000000000000000000000602082015250565b600061315c6021836129f7565b915061316782613100565b604082019050919050565b6000602082019050818103600083015261318b8161314f565b9050919050565b7f4552433732313a20617070726f76652063616c6c6572206973206e6f7420746f60008201527f6b656e206f776e6572206f7220617070726f76656420666f7220616c6c000000602082015250565b60006131ee603d836129f7565b91506131f982613192565b604082019050919050565b6000602082019050818103600083015261321d816131e1565b9050919050565b600081905092915050565b7f7b00000000000000000000000000000000000000000000000000000000000000600082015250565b6000613265600183613224565b91506132708261322f565b600182019050919050565b7f226e616d65223a202250757420796f75722045544820776865726520796f757260008201527f206d6f7574682069732023000000000000000000000000000000000000000000602082015250565b60006132d7602b83613224565b91506132e28261327b565b602b82019050919050565b60006132f8826129ec565b6133028185613224565b9350613312818560208601612a08565b80840191505092915050565b7f222c000000000000000000000000000000000000000000000000000000000000600082015250565b6000613354600283613224565b915061335f8261331e565b600282019050919050565b7f226465736372697074696f6e223a2022446f206974206f72206c6f736520697460008201527f222c000000000000000000000000000000000000000000000000000000000000602082015250565b60006133c6602283613224565b91506133d18261336a565b602282019050919050565b7f22696d616765223a202200000000000000000000000000000000000000000000600082015250565b6000613412600a83613224565b915061341d826133dc565b600a82019050919050565b7f2261747472696275746573223a205b0000000000000000000000000000000000600082015250565b600061345e600f83613224565b915061346982613428565b600f82019050919050565b7f2274726169745f74797065223a2022476f616c222c0000000000000000000000600082015250565b60006134aa601583613224565b91506134b582613474565b601582019050919050565b7f2276616c7565223a202200000000000000000000000000000000000000000000600082015250565b60006134f6600a83613224565b9150613501826134c0565b600a82019050919050565b7f2200000000000000000000000000000000000000000000000000000000000000600082015250565b6000613542600183613224565b915061354d8261350c565b600182019050919050565b7f7d2c000000000000000000000000000000000000000000000000000000000000600082015250565b600061358e600283613224565b915061359982613558565b600282019050919050565b7f2274726169745f74797065223a2022416374697665222c000000000000000000600082015250565b60006135da601783613224565b91506135e5826135a4565b601782019050919050565b7f2276616c7565223a202274727565220000000000000000000000000000000000600082015250565b6000613626600f83613224565b9150613631826135f0565b600f82019050919050565b7f7d00000000000000000000000000000000000000000000000000000000000000600082015250565b6000613672600183613224565b915061367d8261363c565b600182019050919050565b7f5d00000000000000000000000000000000000000000000000000000000000000600082015250565b60006136be600183613224565b91506136c982613688565b600182019050919050565b60006136df82613258565b91506136ea826132ca565b91506136f682866132ed565b915061370182613347565b915061370c826133b9565b915061371782613405565b915061372382856132ed565b915061372e82613347565b915061373982613451565b915061374482613258565b915061374f8261349d565b915061375a826134e9565b915061376682846132ed565b915061377182613535565b915061377c82613581565b915061378782613258565b9150613792826135cd565b915061379d82613619565b91506137a882613665565b91506137b3826136b1565b91506137be82613665565b9150819050949350505050565b7f646174613a6170706c69636174696f6e2f6a736f6e3b6261736536342c000000600082015250565b6000613801601d83613224565b915061380c826137cb565b601d82019050919050565b6000613822826137f4565b915061382e82846132ed565b915081905092915050565b7f506c656173652075736520616e206578697374696e6720746f6b656e00000000600082015250565b600061386f601c836129f7565b915061387a82613839565b602082019050919050565b6000602082019050818103600083015261389e81613862565b9050919050565b7f5468697320746f6b656e20697320736f756c626f756e6420616e642063616e6e60008201527f6f74206265207472616e73666572726564000000000000000000000000000000602082015250565b60006139016031836129f7565b915061390c826138a5565b604082019050919050565b60006020820190508181036000830152613930816138f4565b9050919050565b7f4552433732313a20696e76616c696420746f6b656e2049440000000000000000600082015250565b600061396d6018836129f7565b915061397882613937565b602082019050919050565b6000602082019050818103600083015261399c81613960565b9050919050565b7f4552433732313a2061646472657373207a65726f206973206e6f74206120766160008201527f6c6964206f776e65720000000000000000000000000000000000000000000000602082015250565b60006139ff6029836129f7565b9150613a0a826139a3565b604082019050919050565b60006020820190508181036000830152613a2e816139f2565b9050919050565b7f3c73766720786d6c6e733d22687474703a2f2f7777772e77332e6f72672f323060008201527f30302f73766722207072657365727665417370656374526174696f3d22784d6960208201527f6e594d696e206d656574222076696577426f783d22302030203335302033353060408201527f223e000000000000000000000000000000000000000000000000000000000000606082015250565b6000613add606283613224565b9150613ae882613a35565b606282019050919050565b7f3c7374796c653e2e62617365207b2066696c6c3a2077686974653b20666f6e7460008201527f2d66616d696c793a2073657269663b20666f6e742d73697a653a20313470783b60208201527f207d3c2f7374796c653e00000000000000000000000000000000000000000000604082015250565b6000613b75604a83613224565b9150613b8082613af3565b604a82019050919050565b7f3c726563742077696474683d223130302522206865696768743d22313030252260008201527f2066696c6c3d22626c61636b22202f3e00000000000000000000000000000000602082015250565b6000613be7603083613224565b9150613bf282613b8b565b603082019050919050565b7f3c7465787420783d223530252220793d223430252220636c6173733d2262617360008201527f652220646f6d696e616e742d626173656c696e653d226d6964646c652220746560208201527f78742d616e63686f723d226d6964646c65223e00000000000000000000000000604082015250565b6000613c7f605383613224565b9150613c8a82613bfd565b605382019050919050565b7f3c2f746578743e00000000000000000000000000000000000000000000000000600082015250565b6000613ccb600783613224565b9150613cd682613c95565b600782019050919050565b7f3c7465787420783d223530252220793d223530252220636c6173733d2262617360008201527f652220646f6d696e616e742d626173656c696e653d226d6964646c652220746560208201527f78742d616e63686f723d226d6964646c65223e00000000000000000000000000604082015250565b6000613d63605383613224565b9150613d6e82613ce1565b605382019050919050565b7f4174207374616b653a2000000000000000000000000000000000000000000000600082015250565b6000613daf600a83613224565b9150613dba82613d79565b600a82019050919050565b7f4d41544943203c2f746578743e00000000000000000000000000000000000000600082015250565b6000613dfb600d83613224565b9150613e0682613dc5565b600d82019050919050565b7f3c2f7376673e0000000000000000000000000000000000000000000000000000600082015250565b6000613e47600683613224565b9150613e5282613e11565b600682019050919050565b6000613e6882613ad0565b9150613e7382613b68565b9150613e7e82613bda565b9150613e8982613c72565b9150613e9582856132ed565b9150613ea082613cbe565b9150613eab82613d56565b9150613eb682613da2565b9150613ec282846132ed565b9150613ecd82613dee565b9150613ed882613e3a565b91508190509392505050565b7f646174613a696d6167652f7376672b786d6c3b6261736536342c000000000000600082015250565b6000613f1a601a83613224565b9150613f2582613ee4565b601a82019050919050565b6000613f3b82613f0d565b9150613f4782846132ed565b915081905092915050565b7f6f6e6c7920617269627465722063616e20617070726f76650000000000000000600082015250565b6000613f886018836129f7565b9150613f9382613f52565b602082019050919050565b60006020820190508181036000830152613fb781613f7b565b9050919050565b7f416c726561647920617070726f76656400000000000000000000000000000000600082015250565b6000613ff46010836129f7565b9150613fff82613fbe565b602082019050919050565b6000602082019050818103600083015261402381613fe7565b9050919050565b600081905092915050565b50565b600061404560008361402a565b915061405082614035565b600082019050919050565b600061406682614038565b9150819050919050565b7f4661696c656420746f2073656e64204574686572000000000000000000000000600082015250565b60006140a66014836129f7565b91506140b182614070565b602082019050919050565b600060208201905081810360008301526140d581614099565b9050919050565b7f4552433732313a2063616c6c6572206973206e6f7420746f6b656e206f776e6560008201527f72206f7220617070726f76656400000000000000000000000000000000000000602082015250565b6000614138602d836129f7565b9150614143826140dc565b604082019050919050565b600060208201905081810360008301526141678161412b565b9050919050565b600061417a82856132ed565b915061418682846132ed565b91508190509392505050565b7f4e487b7100000000000000000000000000000000000000000000000000000000600052601260045260246000fd5b7f4e487b7100000000000000000000000000000000000000000000000000000000600052601160045260246000fd5b60006141fb82612aa7565b915061420683612aa7565b92508261421657614215614192565b5b828204905092915050565b600061422c82612aa7565b915061423783612aa7565b9250827fffffffffffffffffffffffffffffffffffffffffffffffffffffffffffffffff0382111561426c5761426b6141c1565b5b828201905092915050565b600061428282612aa7565b915061428d83612aa7565b9250817fffffffffffffffffffffffffffffffffffffffffffffffffffffffffffffffff04831182151516156142c6576142c56141c1565b5b828202905092915050565b7f45524337323155524953746f726167653a2055524920736574206f66206e6f6e60008201527f6578697374656e7420746f6b656e000000000000000000000000000000000000602082015250565b600061432d602e836129f7565b9150614338826142d1565b604082019050919050565b6000602082019050818103600083015261435c81614320565b9050919050565b7f4552433732313a207472616e736665722066726f6d20696e636f72726563742060008201527f6f776e6572000000000000000000000000000000000000000000000000000000602082015250565b60006143bf6025836129f7565b91506143ca82614363565b604082019050919050565b600060208201905081810360008301526143ee816143b2565b9050919050565b7f4552433732313a207472616e7366657220746f20746865207a65726f2061646460008201527f7265737300000000000000000000000000000000000000000000000000000000602082015250565b60006144516024836129f7565b915061445c826143f5565b604082019050919050565b6000602082019050818103600083015261448081614444565b9050919050565b7f4552433732313a20617070726f766520746f2063616c6c657200000000000000600082015250565b60006144bd6019836129f7565b91506144c882614487565b602082019050919050565b600060208201905081810360008301526144ec816144b0565b9050919050565b7f4552433732313a207472616e7366657220746f206e6f6e20455243373231526560008201527f63656976657220696d706c656d656e7465720000000000000000000000000000602082015250565b600061454f6032836129f7565b915061455a826144f3565b604082019050919050565b6000602082019050818103600083015261457e81614542565b9050919050565b600061459082612aa7565b915061459b83612aa7565b9250828210156145ae576145ad6141c1565b5b828203905092915050565b600081519050919050565b600082825260208201905092915050565b60006145e0826145b9565b6145ea81856145c4565b93506145fa818560208601612a08565b61460381612a3b565b840191505092915050565b60006080820190506146236000830187612b3c565b6146306020830186612b3c565b61463d6040830185612e52565b818103606083015261464f81846145d5565b905095945050505050565b6000815190506146698161295d565b92915050565b60006020828403121561468557614684612927565b5b60006146938482850161465a565b91505092915050565b7f4552433732313a206d696e7420746f20746865207a65726f2061646472657373600082015250565b60006146d26020836129f7565b91506146dd8261469c565b602082019050919050565b60006020820190508181036000830152614701816146c5565b9050919050565b7f4552433732313a20746f6b656e20616c7265616479206d696e74656400000000600082015250565b600061473e601c836129f7565b915061474982614708565b602082019050919050565b6000602082019050818103600083015261476d81614731565b905091905056fe4142434445464748494a4b4c4d4e4f505152535455565758595a6162636465666768696a6b6c6d6e6f707172737475767778797a303132333435363738392b2fa26469706673582212206bfd9d455226c578c89784d678f88be37fac4f30251c56ad41d5f3bb7cc6d10264736f6c634300080a0033",
  "linkReferences": {},
  "deployedLinkReferences": {}
}